{
  "address": "0x5FbDB2315678afecb367f032d93F642f64180aa3",
  "abi": [
    {
      "inputs": [],
      "stateMutability": "nonpayable",
      "type": "constructor"
    },
    {
      "anonymous": false,
      "inputs": [
        {
          "indexed": true,
          "internalType": "address",
          "name": "buyer",
          "type": "address"
        },
        {
          "indexed": true,
          "internalType": "uint256",
          "name": "orderId",
          "type": "uint256"
        },
        {
          "indexed": false,
          "internalType": "uint256",
          "name": "itemId",
          "type": "uint256"
        }
      ],
      "name": "Buy",
      "type": "event"
    },
    {
      "anonymous": false,
      "inputs": [
        {
          "indexed": true,
          "internalType": "string",
          "name": "name",
          "type": "string"
        },
        {
          "indexed": false,
          "internalType": "uint256",
          "name": "cost",
          "type": "uint256"
        },
        {
          "indexed": false,
          "internalType": "uint256",
          "name": "quantity",
          "type": "uint256"
        }
      ],
      "name": "List",
      "type": "event"
    },
    {
      "anonymous": false,
      "inputs": [
        {
          "indexed": true,
          "internalType": "address",
          "name": "sellerAddress",
          "type": "address"
        },
        {
          "indexed": true,
          "internalType": "string",
          "name": "name",
          "type": "string"
        },
        {
          "indexed": false,
          "internalType": "uint256",
          "name": "Id",
          "type": "uint256"
        }
      ],
      "name": "SellerAdded",
      "type": "event"
    },
    {
      "inputs": [
        {
          "internalType": "address",
          "name": "",
          "type": "address"
        }
      ],
      "name": "addressToAmount",
      "outputs": [
        {
          "internalType": "uint256",
          "name": "",
          "type": "uint256"
        }
      ],
      "stateMutability": "view",
      "type": "function"
    },
    {
      "inputs": [
        {
          "internalType": "uint256",
          "name": "_id",
          "type": "uint256"
        },
        {
          "internalType": "string",
          "name": "_name",
          "type": "string"
        }
      ],
      "name": "becomeSeller",
      "outputs": [],
      "stateMutability": "nonpayable",
      "type": "function"
    },
    {
      "inputs": [
        {
          "internalType": "uint256",
          "name": "_id",
          "type": "uint256"
        }
      ],
      "name": "buy",
      "outputs": [],
      "stateMutability": "payable",
      "type": "function"
    },
    {
      "inputs": [
        {
          "internalType": "uint256",
          "name": "_id",
          "type": "uint256"
        }
      ],
      "name": "getItem",
      "outputs": [
        {
          "components": [
            {
              "internalType": "uint256",
              "name": "id",
              "type": "uint256"
            },
            {
              "internalType": "string",
              "name": "name",
              "type": "string"
            },
            {
              "internalType": "string",
              "name": "category",
              "type": "string"
            },
            {
              "internalType": "string",
              "name": "image",
              "type": "string"
            },
            {
              "internalType": "uint256",
              "name": "cost",
              "type": "uint256"
            },
            {
              "internalType": "uint256",
              "name": "rating",
              "type": "uint256"
            },
            {
              "internalType": "uint256",
              "name": "stock",
              "type": "uint256"
            },
            {
              "internalType": "address",
              "name": "vendor",
              "type": "address"
            }
          ],
          "internalType": "struct TrustMart.Item",
          "name": "",
          "type": "tuple"
        }
      ],
      "stateMutability": "view",
      "type": "function"
    },
    {
      "inputs": [],
      "name": "getOwner",
      "outputs": [
        {
          "internalType": "address",
          "name": "",
          "type": "address"
        }
      ],
      "stateMutability": "view",
      "type": "function"
    },
    {
      "inputs": [
        {
          "internalType": "address",
          "name": "_address",
          "type": "address"
        }
      ],
      "name": "getSellerInfo",
      "outputs": [
        {
          "components": [
            {
              "internalType": "uint256",
              "name": "id",
              "type": "uint256"
            },
            {
              "internalType": "string",
              "name": "name",
              "type": "string"
            }
          ],
          "internalType": "struct TrustMart.Seller",
          "name": "",
          "type": "tuple"
        }
      ],
      "stateMutability": "view",
      "type": "function"
    },
    {
      "inputs": [
        {
          "internalType": "uint256",
          "name": "",
          "type": "uint256"
        }
      ],
      "name": "items",
      "outputs": [
        {
          "internalType": "uint256",
          "name": "id",
          "type": "uint256"
        },
        {
          "internalType": "string",
          "name": "name",
          "type": "string"
        },
        {
          "internalType": "string",
          "name": "category",
          "type": "string"
        },
        {
          "internalType": "string",
          "name": "image",
          "type": "string"
        },
        {
          "internalType": "uint256",
          "name": "cost",
          "type": "uint256"
        },
        {
          "internalType": "uint256",
          "name": "rating",
          "type": "uint256"
        },
        {
          "internalType": "uint256",
          "name": "stock",
          "type": "uint256"
        },
        {
          "internalType": "address",
          "name": "vendor",
          "type": "address"
        }
      ],
      "stateMutability": "view",
      "type": "function"
    },
    {
      "inputs": [
        {
          "internalType": "uint256",
          "name": "_id",
          "type": "uint256"
        },
        {
          "internalType": "string",
          "name": "_name",
          "type": "string"
        },
        {
          "internalType": "string",
          "name": "_category",
          "type": "string"
        },
        {
          "internalType": "string",
          "name": "_image",
          "type": "string"
        },
        {
          "internalType": "uint256",
          "name": "_cost",
          "type": "uint256"
        },
        {
          "internalType": "uint256",
          "name": "_rating",
          "type": "uint256"
        },
        {
          "internalType": "uint256",
          "name": "_stock",
          "type": "uint256"
        }
      ],
      "name": "list",
      "outputs": [],
      "stateMutability": "nonpayable",
      "type": "function"
    },
    {
      "inputs": [],
      "name": "numberOfItems",
      "outputs": [
        {
          "internalType": "uint256",
          "name": "",
          "type": "uint256"
        }
      ],
      "stateMutability": "view",
      "type": "function"
    },
    {
      "inputs": [
        {
          "internalType": "address",
          "name": "",
          "type": "address"
        }
      ],
      "name": "orderCount",
      "outputs": [
        {
          "internalType": "uint256",
          "name": "",
          "type": "uint256"
        }
      ],
      "stateMutability": "view",
      "type": "function"
    },
    {
      "inputs": [
        {
          "internalType": "address",
          "name": "",
          "type": "address"
        },
        {
          "internalType": "uint256",
          "name": "",
          "type": "uint256"
        }
      ],
      "name": "orders",
      "outputs": [
        {
          "internalType": "uint256",
          "name": "time",
          "type": "uint256"
        },
        {
          "components": [
            {
              "internalType": "uint256",
              "name": "id",
              "type": "uint256"
            },
            {
              "internalType": "string",
              "name": "name",
              "type": "string"
            },
            {
              "internalType": "string",
              "name": "category",
              "type": "string"
            },
            {
              "internalType": "string",
              "name": "image",
              "type": "string"
            },
            {
              "internalType": "uint256",
              "name": "cost",
              "type": "uint256"
            },
            {
              "internalType": "uint256",
              "name": "rating",
              "type": "uint256"
            },
            {
              "internalType": "uint256",
              "name": "stock",
              "type": "uint256"
            },
            {
              "internalType": "address",
              "name": "vendor",
              "type": "address"
            }
          ],
          "internalType": "struct TrustMart.Item",
          "name": "item",
          "type": "tuple"
        }
      ],
      "stateMutability": "view",
      "type": "function"
    },
    {
      "inputs": [
        {
          "internalType": "address",
          "name": "",
          "type": "address"
        }
      ],
      "name": "sellers",
      "outputs": [
        {
          "internalType": "uint256",
          "name": "id",
          "type": "uint256"
        },
        {
          "internalType": "string",
          "name": "name",
          "type": "string"
        }
      ],
      "stateMutability": "view",
      "type": "function"
    },
    {
      "inputs": [],
      "name": "withdraw",
      "outputs": [],
      "stateMutability": "payable",
      "type": "function"
    }
  ],
  "transactionHash": "0xef19e9998c0f596d1b0c54c95ec409ae8e99cc95c0b9f4d706fc9cf1ef6c368c",
  "args": [],
  "numDeployments": 1,
  "solcInputHash": "675ce1e841c290077f4a3e4457166b98",
  "bytecode": "0x60a06040523480156200001157600080fd5b503373ffffffffffffffffffffffffffffffffffffffff1660808173ffffffffffffffffffffffffffffffffffffffff1681525050600060405180604001604052806107d081526020016040518060400160405280600581526020017f6861727368000000000000000000000000000000000000000000000000000000815250815250905080600360003373ffffffffffffffffffffffffffffffffffffffff1673ffffffffffffffffffffffffffffffffffffffff168152602001908152602001600020600082015181600001556020820151816001019081620000f7919062000384565b509050506000600581905550506200046b565b600081519050919050565b7f4e487b7100000000000000000000000000000000000000000000000000000000600052604160045260246000fd5b7f4e487b7100000000000000000000000000000000000000000000000000000000600052602260045260246000fd5b600060028204905060018216806200018c57607f821691505b602082108103620001a257620001a162000144565b5b50919050565b60008190508160005260206000209050919050565b60006020601f8301049050919050565b600082821b905092915050565b6000600883026200020c7fffffffffffffffffffffffffffffffffffffffffffffffffffffffffffffffff82620001cd565b620002188683620001cd565b95508019841693508086168417925050509392505050565b6000819050919050565b6000819050919050565b6000620002656200025f620002598462000230565b6200023a565b62000230565b9050919050565b6000819050919050565b620002818362000244565b6200029962000290826200026c565b848454620001da565b825550505050565b600090565b620002b0620002a1565b620002bd81848462000276565b505050565b5b81811015620002e557620002d9600082620002a6565b600181019050620002c3565b5050565b601f8211156200033457620002fe81620001a8565b6200030984620001bd565b8101602085101562000319578190505b620003316200032885620001bd565b830182620002c2565b50505b505050565b600082821c905092915050565b6000620003596000198460080262000339565b1980831691505092915050565b600062000374838362000346565b9150826002028217905092915050565b6200038f826200010a565b67ffffffffffffffff811115620003ab57620003aa62000115565b5b620003b7825462000173565b620003c4828285620002e9565b600060209050601f831160018114620003fc5760008415620003e7578287015190505b620003f3858262000366565b86555062000463565b601f1984166200040c86620001a8565b60005b8281101562000436578489015182556001820191506020850194506020810190506200040f565b8683101562000456578489015162000452601f89168262000346565b8355505b6001600288020188555050505b505050505050565b6080516125c062000495600039600081816105c401528181610ade015261157d01526125c06000f3fe6080604052600436106100c25760003560e01c8063842296d41161007f578063bfb231d211610059578063bfb231d214610283578063cf317b7e146102c7578063d96a094a14610304578063eea8a7e814610320576100c2565b8063842296d414610204578063893d20e81461022f578063a61533211461025a576100c2565b80633129e773146100c75780633c7e7d28146101045780633ccfd60b146101415780636d47ab721461014b578063713d856b14610189578063793b8c6d146101c6575b600080fd5b3480156100d357600080fd5b506100ee60048036038101906100e991906118a1565b610349565b6040516100fb9190611a6c565b60405180910390f35b34801561011057600080fd5b5061012b60048036038101906101269190611aba565b6105aa565b6040516101389190611af6565b60405180910390f35b6101496105c2565b005b34801561015757600080fd5b50610172600480360381019061016d9190611aba565b6107a0565b604051610180929190611b5b565b60405180910390f35b34801561019557600080fd5b506101b060048036038101906101ab9190611aba565b61084c565b6040516101bd9190611af6565b60405180910390f35b3480156101d257600080fd5b506101ed60048036038101906101e89190611b8b565b610864565b6040516101fb929190611bcb565b60405180910390f35b34801561021057600080fd5b50610219610ad4565b6040516102269190611af6565b60405180910390f35b34801561023b57600080fd5b50610244610ada565b6040516102519190611c0a565b60405180910390f35b34801561026657600080fd5b50610281600480360381019061027c9190611d5a565b610b02565b005b34801561028f57600080fd5b506102aa60048036038101906102a591906118a1565b610be7565b6040516102be989796959493929190611db6565b60405180910390f35b3480156102d357600080fd5b506102ee60048036038101906102e99190611aba565b610de7565b6040516102fb9190611e86565b60405180910390f35b61031e600480360381019061031991906118a1565b610edc565b005b34801561032c57600080fd5b5061034760048036038101906103429190611ea8565b61157b565b005b6103516117e2565b600080838152602001908152602001600020604051806101000160405290816000820154815260200160018201805461038990611fcd565b80601f01602080910402602001604051908101604052809291908181526020018280546103b590611fcd565b80156104025780601f106103d757610100808354040283529160200191610402565b820191906000526020600020905b8154815290600101906020018083116103e557829003601f168201915b5050505050815260200160028201805461041b90611fcd565b80601f016020809104026020016040519081016040528092919081815260200182805461044790611fcd565b80156104945780601f1061046957610100808354040283529160200191610494565b820191906000526020600020905b81548152906001019060200180831161047757829003601f168201915b505050505081526020016003820180546104ad90611fcd565b80601f01602080910402602001604051908101604052809291908181526020018280546104d990611fcd565b80156105265780601f106104fb57610100808354040283529160200191610526565b820191906000526020600020905b81548152906001019060200180831161050957829003601f168201915b505050505081526020016004820154815260200160058201548152602001600682015481526020016007820160009054906101000a900473ffffffffffffffffffffffffffffffffffffffff1673ffffffffffffffffffffffffffffffffffffffff1673ffffffffffffffffffffffffffffffffffffffff16815250509050919050565b60046020528060005260406000206000915090505481565b7f000000000000000000000000000000000000000000000000000000000000000073ffffffffffffffffffffffffffffffffffffffff163373ffffffffffffffffffffffffffffffffffffffff16148061065e57506000600360003373ffffffffffffffffffffffffffffffffffffffff1673ffffffffffffffffffffffffffffffffffffffff16815260200190815260200160002060000154115b61069d576040517f08c379a00000000000000000000000000000000000000000000000000000000081526004016106949061204a565b60405180910390fd5b6000600460003373ffffffffffffffffffffffffffffffffffffffff1673ffffffffffffffffffffffffffffffffffffffff1681526020019081526020016000205490506000600460003373ffffffffffffffffffffffffffffffffffffffff1673ffffffffffffffffffffffffffffffffffffffff1681526020019081526020016000208190555060003373ffffffffffffffffffffffffffffffffffffffff168260405161074c9061209b565b60006040518083038185875af1925050503d8060008114610789576040519150601f19603f3d011682016040523d82523d6000602084013e61078e565b606091505b505090508061079c57600080fd5b5050565b60036020528060005260406000206000915090508060000154908060010180546107c990611fcd565b80601f01602080910402602001604051908101604052809291908181526020018280546107f590611fcd565b80156108425780601f1061081757610100808354040283529160200191610842565b820191906000526020600020905b81548152906001019060200180831161082557829003601f168201915b5050505050905082565b60016020528060005260406000206000915090505481565b6002602052816000526040600020602052806000526040600020600091509150508060000154908060010160405180610100016040529081600082015481526020016001820180546108b590611fcd565b80601f01602080910402602001604051908101604052809291908181526020018280546108e190611fcd565b801561092e5780601f106109035761010080835404028352916020019161092e565b820191906000526020600020905b81548152906001019060200180831161091157829003601f168201915b5050505050815260200160028201805461094790611fcd565b80601f016020809104026020016040519081016040528092919081815260200182805461097390611fcd565b80156109c05780601f10610995576101008083540402835291602001916109c0565b820191906000526020600020905b8154815290600101906020018083116109a357829003601f168201915b505050505081526020016003820180546109d990611fcd565b80601f0160208091040260200160405190810160405280929190818152602001828054610a0590611fcd565b8015610a525780601f10610a2757610100808354040283529160200191610a52565b820191906000526020600020905b815481529060010190602001808311610a3557829003601f168201915b505050505081526020016004820154815260200160058201548152602001600682015481526020016007820160009054906101000a900473ffffffffffffffffffffffffffffffffffffffff1673ffffffffffffffffffffffffffffffffffffffff1673ffffffffffffffffffffffffffffffffffffffff1681525050905082565b60055481565b60007f0000000000000000000000000000000000000000000000000000000000000000905090565b6000604051806040016040528084815260200183815250905080600360003373ffffffffffffffffffffffffffffffffffffffff1673ffffffffffffffffffffffffffffffffffffffff168152602001908152602001600020600082015181600001556020820151816001019081610b7a919061225c565b5090505081604051610b8c919061236a565b60405180910390203373ffffffffffffffffffffffffffffffffffffffff167fa346e541d8f884936e1387f714a1a6b9dde1779bde9a900418fbf56a134d000e85604051610bda9190611af6565b60405180910390a3505050565b6000602052806000526040600020600091509050806000015490806001018054610c1090611fcd565b80601f0160208091040260200160405190810160405280929190818152602001828054610c3c90611fcd565b8015610c895780601f10610c5e57610100808354040283529160200191610c89565b820191906000526020600020905b815481529060010190602001808311610c6c57829003601f168201915b505050505090806002018054610c9e90611fcd565b80601f0160208091040260200160405190810160405280929190818152602001828054610cca90611fcd565b8015610d175780601f10610cec57610100808354040283529160200191610d17565b820191906000526020600020905b815481529060010190602001808311610cfa57829003601f168201915b505050505090806003018054610d2c90611fcd565b80601f0160208091040260200160405190810160405280929190818152602001828054610d5890611fcd565b8015610da55780601f10610d7a57610100808354040283529160200191610da5565b820191906000526020600020905b815481529060010190602001808311610d8857829003601f168201915b5050505050908060040154908060050154908060060154908060070160009054906101000a900473ffffffffffffffffffffffffffffffffffffffff16905088565b610def61183d565b600360008373ffffffffffffffffffffffffffffffffffffffff1673ffffffffffffffffffffffffffffffffffffffff16815260200190815260200160002060405180604001604052908160008201548152602001600182018054610e5390611fcd565b80601f0160208091040260200160405190810160405280929190818152602001828054610e7f90611fcd565b8015610ecc5780601f10610ea157610100808354040283529160200191610ecc565b820191906000526020600020905b815481529060010190602001808311610eaf57829003601f168201915b5050505050815250509050919050565b60008082815260200190815260200160002060040154341015610f34576040517f08c379a0000000000000000000000000000000000000000000000000000000008152600401610f2b906123cd565b60405180910390fd5b60008060008381526020019081526020016000206006015411610f8c576040517f08c379a0000000000000000000000000000000000000000000000000000000008152600401610f8390612439565b60405180910390fd5b600160008083815260200190815260200160002060060154610fae9190612488565b60008083815260200190815260200160002060060181905550600160003373ffffffffffffffffffffffffffffffffffffffff1673ffffffffffffffffffffffffffffffffffffffff1681526020019081526020016000206000815480929190611017906124bc565b91905055506040518060400160405280428152602001600080848152602001908152602001600020604051806101000160405290816000820154815260200160018201805461106590611fcd565b80601f016020809104026020016040519081016040528092919081815260200182805461109190611fcd565b80156110de5780601f106110b3576101008083540402835291602001916110de565b820191906000526020600020905b8154815290600101906020018083116110c157829003601f168201915b505050505081526020016002820180546110f790611fcd565b80601f016020809104026020016040519081016040528092919081815260200182805461112390611fcd565b80156111705780601f1061114557610100808354040283529160200191611170565b820191906000526020600020905b81548152906001019060200180831161115357829003601f168201915b5050505050815260200160038201805461118990611fcd565b80601f01602080910402602001604051908101604052809291908181526020018280546111b590611fcd565b80156112025780601f106111d757610100808354040283529160200191611202565b820191906000526020600020905b8154815290600101906020018083116111e557829003601f168201915b505050505081526020016004820154815260200160058201548152602001600682015481526020016007820160009054906101000a900473ffffffffffffffffffffffffffffffffffffffff1673ffffffffffffffffffffffffffffffffffffffff1673ffffffffffffffffffffffffffffffffffffffff1681525050815250600260003373ffffffffffffffffffffffffffffffffffffffff1673ffffffffffffffffffffffffffffffffffffffff1681526020019081526020016000206000600160003373ffffffffffffffffffffffffffffffffffffffff1673ffffffffffffffffffffffffffffffffffffffff16815260200190815260200160002054815260200190815260200160002060008201518160000155602082015181600101600082015181600001556020820151816001019081611343919061225c565b506040820151816002019081611359919061225c565b50606082015181600301908161136f919061225c565b506080820151816004015560a0820151816005015560c0820151816006015560e08201518160070160006101000a81548173ffffffffffffffffffffffffffffffffffffffff021916908373ffffffffffffffffffffffffffffffffffffffff1602179055505050905050346004600080600085815260200190815260200160002060070160009054906101000a900473ffffffffffffffffffffffffffffffffffffffff1673ffffffffffffffffffffffffffffffffffffffff1673ffffffffffffffffffffffffffffffffffffffff1681526020019081526020016000205461145a9190612504565b6004600080600085815260200190815260200160002060070160009054906101000a900473ffffffffffffffffffffffffffffffffffffffff1673ffffffffffffffffffffffffffffffffffffffff1673ffffffffffffffffffffffffffffffffffffffff16815260200190815260200160002081905550600160003373ffffffffffffffffffffffffffffffffffffffff1673ffffffffffffffffffffffffffffffffffffffff168152602001908152602001600020543373ffffffffffffffffffffffffffffffffffffffff167f1cbc5ab135991bd2b6a4b034a04aa2aa086dac1371cb9b16b8b5e2ed6b036bed836040516115589190611af6565b60405180910390a36005600081548092919061157390612538565b919050555050565b7f000000000000000000000000000000000000000000000000000000000000000073ffffffffffffffffffffffffffffffffffffffff163373ffffffffffffffffffffffffffffffffffffffff16148061161757506000600360003373ffffffffffffffffffffffffffffffffffffffff1673ffffffffffffffffffffffffffffffffffffffff16815260200190815260200160002060000154115b611656576040517f08c379a000000000000000000000000000000000000000000000000000000000815260040161164d9061204a565b60405180910390fd5b60006040518061010001604052808981526020018881526020018781526020018681526020018581526020018481526020018381526020013373ffffffffffffffffffffffffffffffffffffffff168152509050806000808a81526020019081526020016000206000820151816000015560208201518160010190816116dc919061225c565b5060408201518160020190816116f2919061225c565b506060820151816003019081611708919061225c565b506080820151816004015560a0820151816005015560c0820151816006015560e08201518160070160006101000a81548173ffffffffffffffffffffffffffffffffffffffff021916908373ffffffffffffffffffffffffffffffffffffffff1602179055509050508660405161177f919061236a565b60405180910390207ffdbe2a012c10ec01592653978eaa09b5ca60b143a0e617505b2ebcbd911ec5b885846040516117b8929190612561565b60405180910390a2600560008154809291906117d3906124bc565b91905055505050505050505050565b60405180610100016040528060008152602001606081526020016060815260200160608152602001600081526020016000815260200160008152602001600073ffffffffffffffffffffffffffffffffffffffff1681525090565b604051806040016040528060008152602001606081525090565b6000604051905090565b600080fd5b600080fd5b6000819050919050565b61187e8161186b565b811461188957600080fd5b50565b60008135905061189b81611875565b92915050565b6000602082840312156118b7576118b6611861565b5b60006118c58482850161188c565b91505092915050565b6118d78161186b565b82525050565b600081519050919050565b600082825260208201905092915050565b60005b838110156119175780820151818401526020810190506118fc565b60008484015250505050565b6000601f19601f8301169050919050565b600061193f826118dd565b61194981856118e8565b93506119598185602086016118f9565b61196281611923565b840191505092915050565b600073ffffffffffffffffffffffffffffffffffffffff82169050919050565b60006119988261196d565b9050919050565b6119a88161198d565b82525050565b6000610100830160008301516119c760008601826118ce565b50602083015184820360208601526119df8282611934565b915050604083015184820360408601526119f98282611934565b91505060608301518482036060860152611a138282611934565b9150506080830151611a2860808601826118ce565b5060a0830151611a3b60a08601826118ce565b5060c0830151611a4e60c08601826118ce565b5060e0830151611a6160e086018261199f565b508091505092915050565b60006020820190508181036000830152611a8681846119ae565b905092915050565b611a978161198d565b8114611aa257600080fd5b50565b600081359050611ab481611a8e565b92915050565b600060208284031215611ad057611acf611861565b5b6000611ade84828501611aa5565b91505092915050565b611af08161186b565b82525050565b6000602082019050611b0b6000830184611ae7565b92915050565b600082825260208201905092915050565b6000611b2d826118dd565b611b378185611b11565b9350611b478185602086016118f9565b611b5081611923565b840191505092915050565b6000604082019050611b706000830185611ae7565b8181036020830152611b828184611b22565b90509392505050565b60008060408385031215611ba257611ba1611861565b5b6000611bb085828601611aa5565b9250506020611bc18582860161188c565b9150509250929050565b6000604082019050611be06000830185611ae7565b8181036020830152611bf281846119ae565b90509392505050565b611c048161198d565b82525050565b6000602082019050611c1f6000830184611bfb565b92915050565b600080fd5b600080fd5b7f4e487b7100000000000000000000000000000000000000000000000000000000600052604160045260246000fd5b611c6782611923565b810181811067ffffffffffffffff82111715611c8657611c85611c2f565b5b80604052505050565b6000611c99611857565b9050611ca58282611c5e565b919050565b600067ffffffffffffffff821115611cc557611cc4611c2f565b5b611cce82611923565b9050602081019050919050565b82818337600083830152505050565b6000611cfd611cf884611caa565b611c8f565b905082815260208101848484011115611d1957611d18611c2a565b5b611d24848285611cdb565b509392505050565b600082601f830112611d4157611d40611c25565b5b8135611d51848260208601611cea565b91505092915050565b60008060408385031215611d7157611d70611861565b5b6000611d7f8582860161188c565b925050602083013567ffffffffffffffff811115611da057611d9f611866565b5b611dac85828601611d2c565b9150509250929050565b600061010082019050611dcc600083018b611ae7565b8181036020830152611dde818a611b22565b90508181036040830152611df28189611b22565b90508181036060830152611e068188611b22565b9050611e156080830187611ae7565b611e2260a0830186611ae7565b611e2f60c0830185611ae7565b611e3c60e0830184611bfb565b9998505050505050505050565b6000604083016000830151611e6160008601826118ce565b5060208301518482036020860152611e798282611934565b9150508091505092915050565b60006020820190508181036000830152611ea08184611e49565b905092915050565b600080600080600080600060e0888a031215611ec757611ec6611861565b5b6000611ed58a828b0161188c565b975050602088013567ffffffffffffffff811115611ef657611ef5611866565b5b611f028a828b01611d2c565b965050604088013567ffffffffffffffff811115611f2357611f22611866565b5b611f2f8a828b01611d2c565b955050606088013567ffffffffffffffff811115611f5057611f4f611866565b5b611f5c8a828b01611d2c565b9450506080611f6d8a828b0161188c565b93505060a0611f7e8a828b0161188c565b92505060c0611f8f8a828b0161188c565b91505092959891949750929550565b7f4e487b7100000000000000000000000000000000000000000000000000000000600052602260045260246000fd5b60006002820490506001821680611fe557607f821691505b602082108103611ff857611ff7611f9e565b5b50919050565b7f596f7520617265206e6f74207468652073656c6c657200000000000000000000600082015250565b6000612034601683611b11565b915061203f82611ffe565b602082019050919050565b6000602082019050818103600083015261206381612027565b9050919050565b600081905092915050565b50565b600061208560008361206a565b915061209082612075565b600082019050919050565b60006120a682612078565b9150819050919050565b60008190508160005260206000209050919050565b60006020601f8301049050919050565b600082821b905092915050565b6000600883026121127fffffffffffffffffffffffffffffffffffffffffffffffffffffffffffffffff826120d5565b61211c86836120d5565b95508019841693508086168417925050509392505050565b6000819050919050565b600061215961215461214f8461186b565b612134565b61186b565b9050919050565b6000819050919050565b6121738361213e565b61218761217f82612160565b8484546120e2565b825550505050565b600090565b61219c61218f565b6121a781848461216a565b505050565b5b818110156121cb576121c0600082612194565b6001810190506121ad565b5050565b601f821115612210576121e1816120b0565b6121ea846120c5565b810160208510156121f9578190505b61220d612205856120c5565b8301826121ac565b50505b505050565b600082821c905092915050565b600061223360001984600802612215565b1980831691505092915050565b600061224c8383612222565b9150826002028217905092915050565b612265826118dd565b67ffffffffffffffff81111561227e5761227d611c2f565b5b6122888254611fcd565b6122938282856121cf565b600060209050601f8311600181146122c657600084156122b4578287015190505b6122be8582612240565b865550612326565b601f1984166122d4866120b0565b60005b828110156122fc578489015182556001820191506020850194506020810190506122d7565b868310156123195784890151612315601f891682612222565b8355505b6001600288020188555050505b505050505050565b600081905092915050565b6000612344826118dd565b61234e818561232e565b935061235e8185602086016118f9565b80840191505092915050565b60006123768284612339565b915081905092915050565b7f596f7520646f6e7427206861766520656e6f7567682043727970746f00000000600082015250565b60006123b7601c83611b11565b91506123c282612381565b602082019050919050565b600060208201905081810360008301526123e6816123aa565b9050919050565b7f4974656d206f7574206f662073746f636b000000000000000000000000000000600082015250565b6000612423601183611b11565b915061242e826123ed565b602082019050919050565b6000602082019050818103600083015261245281612416565b9050919050565b7f4e487b7100000000000000000000000000000000000000000000000000000000600052601160045260246000fd5b60006124938261186b565b915061249e8361186b565b92508282039050818111156124b6576124b5612459565b5b92915050565b60006124c78261186b565b91507fffffffffffffffffffffffffffffffffffffffffffffffffffffffffffffffff82036124f9576124f8612459565b5b600182019050919050565b600061250f8261186b565b915061251a8361186b565b925082820190508082111561253257612531612459565b5b92915050565b60006125438261186b565b91506000820361255657612555612459565b5b600182039050919050565b60006040820190506125766000830185611ae7565b6125836020830184611ae7565b939250505056fea26469706673582212207e63ac1bb9eab53a1d618304d11716fcc046a505468f575e11977c778d3318c164736f6c63430008110033",
  "devdoc": {
    "kind": "dev",
    "methods": {},
    "version": 1
  },
  "userdoc": {
    "kind": "user",
    "methods": {},
    "version": 1
  },
  "storageLayout": {
    "storage": [
      {
        "astId": 58,
        "contract": "contracts/TrustMart.sol:TrustMart",
        "label": "items",
        "offset": 0,
        "slot": "0",
        "type": "t_mapping(t_uint256,t_struct(Item)47_storage)"
      },
      {
        "astId": 62,
        "contract": "contracts/TrustMart.sol:TrustMart",
        "label": "orderCount",
        "offset": 0,
        "slot": "1",
        "type": "t_mapping(t_address,t_uint256)"
      },
      {
        "astId": 69,
        "contract": "contracts/TrustMart.sol:TrustMart",
        "label": "orders",
        "offset": 0,
        "slot": "2",
        "type": "t_mapping(t_address,t_mapping(t_uint256,t_struct(Order)53_storage))"
      },
      {
        "astId": 74,
        "contract": "contracts/TrustMart.sol:TrustMart",
        "label": "sellers",
        "offset": 0,
        "slot": "3",
        "type": "t_mapping(t_address,t_struct(Seller)30_storage)"
      },
      {
        "astId": 80,
        "contract": "contracts/TrustMart.sol:TrustMart",
        "label": "addressToAmount",
        "offset": 0,
        "slot": "4",
        "type": "t_mapping(t_address,t_uint256)"
      },
      {
        "astId": 82,
        "contract": "contracts/TrustMart.sol:TrustMart",
        "label": "numberOfItems",
        "offset": 0,
        "slot": "5",
        "type": "t_uint256"
      }
    ],
    "types": {
      "t_address": {
        "encoding": "inplace",
        "label": "address",
        "numberOfBytes": "20"
      },
      "t_mapping(t_address,t_mapping(t_uint256,t_struct(Order)53_storage))": {
        "encoding": "mapping",
        "key": "t_address",
        "label": "mapping(address => mapping(uint256 => struct TrustMart.Order))",
        "numberOfBytes": "32",
        "value": "t_mapping(t_uint256,t_struct(Order)53_storage)"
      },
      "t_mapping(t_address,t_struct(Seller)30_storage)": {
        "encoding": "mapping",
        "key": "t_address",
        "label": "mapping(address => struct TrustMart.Seller)",
        "numberOfBytes": "32",
        "value": "t_struct(Seller)30_storage"
      },
      "t_mapping(t_address,t_uint256)": {
        "encoding": "mapping",
        "key": "t_address",
        "label": "mapping(address => uint256)",
        "numberOfBytes": "32",
        "value": "t_uint256"
      },
      "t_mapping(t_uint256,t_struct(Item)47_storage)": {
        "encoding": "mapping",
        "key": "t_uint256",
        "label": "mapping(uint256 => struct TrustMart.Item)",
        "numberOfBytes": "32",
        "value": "t_struct(Item)47_storage"
      },
      "t_mapping(t_uint256,t_struct(Order)53_storage)": {
        "encoding": "mapping",
        "key": "t_uint256",
        "label": "mapping(uint256 => struct TrustMart.Order)",
        "numberOfBytes": "32",
        "value": "t_struct(Order)53_storage"
      },
      "t_string_storage": {
        "encoding": "bytes",
        "label": "string",
        "numberOfBytes": "32"
      },
      "t_struct(Item)47_storage": {
        "encoding": "inplace",
        "label": "struct TrustMart.Item",
        "members": [
          {
            "astId": 32,
            "contract": "contracts/TrustMart.sol:TrustMart",
            "label": "id",
            "offset": 0,
            "slot": "0",
            "type": "t_uint256"
          },
          {
            "astId": 34,
            "contract": "contracts/TrustMart.sol:TrustMart",
            "label": "name",
            "offset": 0,
            "slot": "1",
            "type": "t_string_storage"
          },
          {
            "astId": 36,
            "contract": "contracts/TrustMart.sol:TrustMart",
            "label": "category",
            "offset": 0,
            "slot": "2",
            "type": "t_string_storage"
          },
          {
            "astId": 38,
            "contract": "contracts/TrustMart.sol:TrustMart",
            "label": "image",
            "offset": 0,
            "slot": "3",
            "type": "t_string_storage"
          },
          {
            "astId": 40,
            "contract": "contracts/TrustMart.sol:TrustMart",
            "label": "cost",
            "offset": 0,
            "slot": "4",
            "type": "t_uint256"
          },
          {
            "astId": 42,
            "contract": "contracts/TrustMart.sol:TrustMart",
            "label": "rating",
            "offset": 0,
            "slot": "5",
            "type": "t_uint256"
          },
          {
            "astId": 44,
            "contract": "contracts/TrustMart.sol:TrustMart",
            "label": "stock",
            "offset": 0,
            "slot": "6",
            "type": "t_uint256"
          },
          {
            "astId": 46,
            "contract": "contracts/TrustMart.sol:TrustMart",
            "label": "vendor",
            "offset": 0,
            "slot": "7",
            "type": "t_address"
          }
        ],
        "numberOfBytes": "256"
      },
      "t_struct(Order)53_storage": {
        "encoding": "inplace",
        "label": "struct TrustMart.Order",
        "members": [
          {
            "astId": 49,
            "contract": "contracts/TrustMart.sol:TrustMart",
            "label": "time",
            "offset": 0,
            "slot": "0",
            "type": "t_uint256"
          },
          {
            "astId": 52,
            "contract": "contracts/TrustMart.sol:TrustMart",
            "label": "item",
            "offset": 0,
            "slot": "1",
            "type": "t_struct(Item)47_storage"
          }
        ],
        "numberOfBytes": "288"
      },
      "t_struct(Seller)30_storage": {
        "encoding": "inplace",
        "label": "struct TrustMart.Seller",
        "members": [
          {
            "astId": 27,
            "contract": "contracts/TrustMart.sol:TrustMart",
            "label": "id",
            "offset": 0,
            "slot": "0",
            "type": "t_uint256"
          },
          {
            "astId": 29,
            "contract": "contracts/TrustMart.sol:TrustMart",
            "label": "name",
            "offset": 0,
            "slot": "1",
            "type": "t_string_storage"
          }
        ],
        "numberOfBytes": "64"
      },
      "t_uint256": {
        "encoding": "inplace",
        "label": "uint256",
        "numberOfBytes": "32"
      }
    }
  }
}